:100000000C9435000C945D000C945D000C945D0024
:100010000C945D000C945D000C945D000C945D00EC
:100020000C945D000C945D000C945D000C945D00DC
:100030000C945D000C945D000C945D000C945D00CC
:100040000C9489010C945D000C94F9010C94D3017B
:100050000C945D000C945D000C945D000C945D00AC
:100060000C945D000C945D00BA0211241FBECFEF0A
:10007000D8E0DEBFCDBF11E0A0E0B1E0EEEDF5E0ED
:1000800002C005900D92A433B107D9F721E0A4E393
:10009000B1E001C01D92AA3DB207E1F710E0C5E34F
:1000A000D0E004C02197FE010E94E702C433D107CB
:1000B000C9F70E942B020C94ED020C940000AF9241
:1000C000BF92CF92DF92EF92FF920F931F93CF9345
:1000D000DF936C017B018B01040F151FEB015E01A7
:1000E000AE18BF08C017D10759F06991D601ED913C
:1000F000FC910190F081E02DC6010995892B79F7DB
:10010000C501DF91CF911F910F91FF90EF90DF908C
:10011000CF90BF90AF900895FC01538D448D252F53
:1001200030E0842F90E0821B930B541710F0CF9691
:10013000089501970895FC01918D828D981761F0C3
:10014000A28DAE0FBF2FB11D5D968C91928D9F5FDA
:100150009F73928F90E008958FEF9FEF0895FC01B9
:10016000918D828D981731F0828DE80FF11D858D6C
:1001700090E008958FEF9FEF0895FC01918D228DFF
:10018000892F90E0805C9F4F821B91098F73992784
:1001900008958DE391E00E94BD0021E0892B09F4D0
:1001A00020E0822F089580E090E0892B29F00E94C2
:1001B000C90081110C9400000895FC01A48DA80FC2
:1001C000B92FB11DA35ABF4F2C91848D90E0019699
:1001D0008F739927848FA689B7892C93A089B189B9
:1001E0008C91837080648C93938D848D981306C05A
:1001F0000288F389E02D80818F7D80830895EF92BE
:10020000FF920F931F93CF93DF93EC0181E0888FD0
:100210009B8D8C8D98131AC0E889F989808185FFA0
:1002200015C09FB7F894EE89FF896083E889F98942
:1002300080818370806480839FBF81E090E0DF9144
:10024000CF911F910F91FF90EF900895F62E0B8D97
:1002500010E00F5F1F4F0F731127E02E8C8D8E1152
:100260000CC00FB607FCFACFE889F989808185FFB9
:10027000F5CFCE010E94DD00F1CFEB8DEC0FFD2F0D
:10028000F11DE35AFF4FF0829FB7F8940B8FEA8974
:10029000FB8980818062CFCFCF93DF93EC01888D83
:1002A0008823B9F0AA89BB89E889F9898C9185FDF1
:1002B00003C0808186FD0DC00FB607FCF7CF8C917F
:1002C00085FFF2CF808185FFEDCFCE010E94DD005A
:1002D000E9CFDF91CF910895CF93DF93FC01019097
:1002E0000020E9F73197AF01481B590BBC018DE3A2
:1002F00091E00E945F00EC0142E050E062E171E0B9
:100300008DE391E00E945F008C0F9D1FDF91CF91E4
:1003100008951F920F920FB60F9211242F933F93BF
:100320008F939F93AF93BF938091390190913A013E
:10033000A0913B01B0913C013091380123E0230FA3
:100340002D3758F50196A11DB11D209338018093DA
:10035000390190933A01A0933B01B0933C01809105
:10036000340190913501A0913601B0913701019689
:10037000A11DB11D8093340190933501A0933601E6
:10038000B0933701BF91AF919F918F913F912F9182
:100390000F900FBE0F901F90189526E8230F02961E
:1003A000A11DB11DD2CF1F920F920FB60F92112433
:1003B0002F933F934F935F936F937F938F939F936D
:1003C000AF93BF93EF93FF938DE391E00E94DD0025
:1003D000FF91EF91BF91AF919F918F917F916F911D
:1003E0005F914F913F912F910F900FBE0F901F90F3
:1003F00018951F920F920FB60F9211242F938F937F
:100400009F93EF93FF93E0914D01F0914E01808116
:10041000E0915301F091540182FD1BC090818091C5
:1004200056018F5F8F7320915701821741F0E09141
:100430005601F0E0E35CFE4F958F80935601FF91EB
:10044000EF919F918F912F910F900FBE0F901F9062
:1004500018958081F4CF789484B5826084BD84B58A
:10046000816084BD85B5826085BD85B5816085BDAF
:1004700080916E00816080936E0010928100809167
:1004800081008260809381008091810081608093EF
:100490008100809180008160809380008091B10014
:1004A00084608093B1008091B00081608093B0003F
:1004B00080917A00846080937A0080917A008260D3
:1004C00080937A0080917A00816080937A00809195
:1004D0007A00806880937A001092C100E0914D010B
:1004E000F0914E0182E08083E0914901F0914A0150
:1004F0001082E0914B01F0914C018FEC80831092BF
:100500005501E0915101F091520186E08083E09124
:100510004F01F0915001808180618083E0914F0113
:10052000F0915001808188608083E0914F01F091CB
:100530005001808180688083E0914F01F0915001EB
:1005400080818F7D808385E191E00E946C018EE146
:1005500091E00E946C018BE291E00E946C01C0E08E
:10056000D0E02097F1F30E94C9008823D1F30E94C4
:100570000000F7CFEDE3F1E01382128288EE93E002
:10058000A0E0B0E084839583A683B78384E091E004
:100590009183808385EC90E09587848784EC90E05C
:1005A0009787868780EC90E0918B808B81EC90E040
:1005B000938B828B82EC90E0958B848B86EC90E021
:1005C000978B868B118E128E138E148E0895EE0FDC
:0E05D000FF1F0590F491E02D0994F894FFCFE1
:1005DE0000000000FF005F008C004C01BD009B007E
:1005EE00AF000D0A00312D20436166C3A900322DE4
:1005FE0020436170756363696E6F00332D20416710
:04060E007561000012
:00000001FF
